S01600004272617A6F5F726F626F7469636F2E7372656350
S11300000C944B000C9468000C9468000C945803F6
S11300100C948F030C9468000C9468000C94680092
S11300200C9468000C9468000C9468000C946800AC
S11300300C9468000C9468000C9468000C9468009C
S11300400C9468000C9468000C947D040C94680073
S11300500C9468000C94AB040C9468000C94680035
S11300600C9468000C946800C200930099009F00EF
S1130070A500AB00B100B700820588058E05F20526
S113008094059F05AA05B505BB05C605D105F2056E
S1130090F205DC05E70511241FBECFEFD8E0DEBF73
S11300A0CDBF11E0A0E0B1E0E0E0F7E102C00590CF
S11300B00D92A431B107D9F721E0A4E1B1E001C068
S11300C01D92A633B207E1F70E94F1010C947E0B56
S11300D00C9400000F9310927C00811106C0ACE7D1
S11300E0B0E08C918F7D8C9305C0ACE7B0E08C912F
S11300F080628C93613019F0653039F00BC0ACE745
S1130100B0E08C91806C8C9305C0ACE7B0E08C912E
S113011080648C9350E04830510578F5FA01EC5C2A
S1130120FF4F0C948308ECE7F0E0808181608083CA
S113013029C0ECE7F0E080818260808323C0ECE793
S1130140F0E08081836080831DC0ECE7F0E0808173
S11301508460808317C0ECE7F0E080818560808351
S113016011C0ECE7F0E08081866080830BC0ECE78F
S1130170F0E080818760808305C0ECE7F0E0808157
S11301808660808310927A00211106C0EAE7F0E0CD
S11301908081877F808305C0EAE7F0E08081886002
S11301A080830031D9F038F4043061F0083081F0F4
S11301B0023061F530C00034E9F0003809F1003252
S11301C029F512C0EAE7F0E080818260808323C0D1
S11301D0EAE7F0E08081836080831DC0EAE7F0E015
S11301E080818460808317C0EAE7F0E080818560C5
S11301F0808311C0EAE7F0E08081866080830BC0D1
S1130200EAE7F0E080818760808305C0EAE7F0E0F8
S1130210808187608083EAE7F0E08081806C80835E
S11302200F9108950F931F93F89417B818B888B1D5
S11302308F6088B914B884B18E6084B915B885B15B
S1130240806185B91AB88AB18A678AB91BB8E8E6A9
S1130250F0E01082808183608083ECE6F0E010821D
S1130260ABE6B0E01C928C9180618C9380818F60AE
S113027080830FE31CE928E030E04EE060E082E098
S11302800E94420520E034E043E060E082E00E9406
S11302908B064091020100E821E065E081E00E94C4
S11302A06A000E947607809121010E949107789448
S11302B01F910F910895EF92FF920F931F93CF9385
S11302C0DF937B018A01E901209121012230A1F40D
S11302D060911A010E94500760911801C7010E94A1
S11302E050076091B300C8010E9450076091B400A8
S11302F0CE010E94500713C0609117010E9450075D
S113030060911601C7010E9450076091B300C801B3
S11303100E9450076091B400CE010E945007DF9103
S1130320CF911F910F91FF90EF900895EF92FF925C
S11303300F931F93CF93DF937B018A01E9012091EF
S113034021012130E1F40E9447070E940D08909397
S1130350890080938800C7010E9447070E943708DC
S113036090938B0080938A00C8010E944707809372
S1130370B300CE010E9447078093B4001BC00E94C3
S113038047070E9432059093890080938800C70133
S11303900E9447070E94320590938B0080938A0045
S11303A0C8010E9447078093B300CE010E9447070B
S11303B08093B400DF91CF911F910F91FF90EF9044
S11303C008958BB180648BB92FEF81EE94E02150B6
S11303D080409040E1F700C000008BB18F7B8BB967
S11303E008950E9412018FE99FE00197F1F700C080
S11303F0000080911401813061F510921401809104
S113040022018D34A1F480912401813311F580916E
S113041021018F5F8093210180912101833011F4A8
S113042010922101809121010E94910712C082340F
S113043041F0883431F0833421F0873411F0803571
S113044041F491E090931401803519F482E0809393
S1130450140180912101813091F020F0823009F45F
S11304607DC0C1CF8BB18F7C8BB98091010182306B
S113047008F4B9CF0E94E10110920101B4CF8BB10D
S11304808F7D8BB98BB180618BB9809114018230DF
S113049009F05AC080912201803509F055C080913D
S11304A023018233E1F018F4813331F04DC08333FA
S11304B041F18433C1F148C080912501813309F0B1
S11304C043C023E030E042E050E061E070E080E0CF
S11304D090E00E94960182E08093000135C08091F3
S11304E02501813389F527E030E046E050E065E0FE
S11304F070E084E090E00E94960182E08093000125
S113050023C0809125018133F9F42BE030E04AE0E7
S113051050E069E070E088E090E00E94960182E09B
S11305208093000111C080912501813369F42FE08B
S113053030E04EE050E06DE070E08CE090E00E942E
S1130540960182E08093000180910001823008F4DA
S11305504ACF0E94E1011092000145CF8BB18F7EFA
S11305608BB98BB180628BB980911401813009F011
S113057043C080912201833471F118F4823431F044
S11305803BC0873489F1883491F036C082E291E02F
S11305900E94DB07282F30E030931B0120931A01BF
S11305A00E940D08909389008093880025C082E200
S11305B091E00E94DB0790E0909319018093180169
S11305C082E291E00E94DB070E94370890938B003F
S11305D080938A0011C082E291E00E94DB070E94AE
S11305E014088093B30008C082E291E00E94DB0704
S11305F00E943E088093B40080911401823009F077
S1130600F2CE809123018233C1F018F4813331F0AA
S113061040C0833309F1843371F13BC080912501DB
S11306208133B9F523E030E042E050E061E070E06E
S113063080E090E00E945B012CC080912501813311
S113064041F527E030E046E050E065E070E084E00A
S113065090E00E945B011DC0809125018133C9F4A3
S11306602BE030E04AE050E069E070E088E090E0A0
S11306700E945B010EC080912501813351F42FE06B
S113068030E04EE050E06DE070E08CE090E00E94DD
S11306905B011092140182E08093010180910101B9
S11306A0823008F4A0CE0E94E101109201019BCE99
S11306B01F920F920FB60F9211242F933F934F93D3
S11306C05F936F937F938F939F93AF93BF93EF93B6
S11306D0FF931C9913C086B18F708F3079F4809189
S11306E021018F5F8093210180912101833011F4D6
S11306F010922101809121010E949107FF91EF91B5
S1130700BF91AF919F918F917F916F915F914F9125
S11307103F912F910F900FBE0F901F9018951F922D
S11307200F920FB60F9211242F933F934F935F9321
S11307306F937F938F939F93AF93BF93EF93FF93A5
S113074080912101882321F0813009F464C0C4C060
S113075080910101811109C086B18F708F3009F039
S1130760BBC081E080930101B7C080910101813059
S113077009F0B2C0309912C086B18E708E3071F417
S113078082E08093010123E030E042E050E061E048
S113079070E080E090E00E945B019EC0319912C03D
S11307A086B18D708D3071F483E08093010127E070
S11307B030E046E050E065E070E084E090E00E94C4
S11307C05B018AC0329912C086B18B708B3071F490
S11307D084E0809301012BE030E04AE050E069E0DE
S11307E070E088E090E00E945B0176C0339974C0A9
S11307F086B18770873009F06FC085E0809301016E
S11308002FE030E04EE050E06DE070E08CE090E0EE
S11308100E945B0161C080910001811109C086B111
S11308208F708F3009F058C081E08093000154C06C
S113083080910001813009F04FC0309912C086B117
S11308408E708E3071F482E08093000123E030E0FA
S113085042E050E061E070E080E090E00E949601A8
S11308603BC0319912C086B18D708D3071F483E034
S11308708093000127E030E046E050E065E070E05E
S113088084E090E00E94960127C0329912C086B19C
S11308908B708B3071F484E0809300012BE030E0A6
S11308A04AE050E069E070E088E090E00E94960140
S11308B013C0339911C086B18770873069F485E01D
S11308C0809300012FE030E04EE050E06DE070E0F6
S11308D08CE090E00E949601FF91EF91BF91AF915F
S11308E09F918F917F916F915F914F913F912F9144
S11308F00F900FBE0F901F9018951F920F920FB676
S11309000F9211248F939F93EF93FF938091C600CE
S11309108A3061F4E0911501F0E0EE5DFE4F108243
S11309201092150181E0809314010CC0E09115012F
S1130930E33140F491E09E0F90931501F0E0EE5DF9
S1130940FE4F8083FF91EF919F918F910F900FBE87
S11309500F901F9018951F920F920FB60F921124AB
S11309600F932F933F934F935F936F937F938F9343
S11309709F93AF93BF93EF93FF93809121018111D4
S113098057C08091790080932001809102018530C5
S1130990B1F018F4843031F03EC08630E9F087308D
S11309A059F139C0809120010E9432059093890049
S11309B08093880080912001809317012CC080913E
S11309C020010E94390590938B0080938A008091C6
S11309D02001809316011FC0809120010E943906D6
S11309E090E090931F0180931E0180911E019091CD
S11309F01F018093B3000FC0809120010E946606FE
S1130A0090E090931D0180931C0180911C019091B2
S1130A101D018093B40080910201873020F084E0AE
S1130A208093020105C0809102018F5F80930201CF
S1130A304091020100E821E065E081E00E946A0043
S1130A40FF91EF91BF91AF919F918F917F916F91A2
S1130A505F914F913F912F910F910F900FBE0F9087
S1130A601F9018952FE0829FC00111248E509C4F37
S1130A70089590E09C01220F331F820F931F885129
S1130A809C4F08950F931F93109280001092810041
S1130A9081110EC0611106C0A0E8B0E08C918062A3
S1130AA08C9325C0A0E8B0E08C9180638C931FC028
S1130AB0813071F4611106C0A0E8B0E08C918068C7
S1130AC08C9315C0A0E8B0E08C91806C8C930FC01F
S1130AD0823069F4611106C0A0E8B0E08C91806AAC
S1130AE08C9305C0A0E8B0E08C91806F8C9350E0AB
S1130AF0FA013197EF30F10508F074C0E45CFF4F60
S1130B000C948308E0E8F0E080818160808374C005
S1130B10E0E8F0E08081826080836EC0E0E8F0E08D
S1130B2080818360808368C0E0E8F0E08081816038
S1130B308083E1E8F0E08081886080835DC0E0E844
S1130B40F0E0808182608083E1E8F0E08081886069
S1130B50808352C0E0E8F0E0808183608083E1E834
S1130B60F0E080818860808347C0E1E8F0E0808124
S1130B708061808341C0E1E8F0E08081806180830E
S1130B80E0E8F0E080818160808336C0E1E8F0E055
S1130B90808180618083E0E8F0E0808182608083EE
S1130BA02BC0E0E8F0E0808183608083E1E8F0E03E
S1130BB080818061808320C0E0E8F0E080818260F1
S1130BC08083E1E8F0E080818861808315C0E0E8FB
S1130BD0F0E0808183608083E1E8F0E080818861D7
S1130BE080830AC0E0E8F0E0808182608083E1E8ED
S1130BF0F0E080818861808320343105E1F038F4AD
S1130C002130310561F02830310579F026C02115F5
S1130C1081E03807B1F021153440C9F01EC0E1E885
S1130C20F0E08081816080831DC0E1E8F0E0808194
S1130C308260808317C0E1E8F0E080818360808374
S1130C4011C0E1E8F0E08081846080830BC0E1E8BA
S1130C50F0E080818560808305C0E1E8F0E0808178
S1130C60887F808310938700009386001F910F91E3
S1130C7008950F931F93482F50E060E070E08A01BD
S1130C809B01000F111F221F331FD901C801880FB8
S1130C90991FAA1FBB1F880F991FAA1FBB1F800F74
S1130CA0911FA21FB31F8C019D01040F151F261F46
S1130CB0371FC901B8012FEF30E040E050E00E9437
S1130CC061088BE0820F1F910F9108950F931F937A
S1130CD0082F10E020E030E0D901C801880F991FE7
S1130CE0AA1FBB1F880F991FAA1FBB1F880F991F1C
S1130CF0AA1FBB1FBC01CD01601B710B820B930BA0
S1130D002FEF30E040E050E00E94610886E0820F5F
S1130D101F910F9108951092B0001092B1008111AB
S1130D200EC0611106C0E0EBF0E080818062808338
S1130D3025C0E0EBF0E08081806380831FC08130B8
S1130D4071F4611106C0E0EBF0E08081806880837B
S1130D5015C0E0EBF0E08081806C80830FC08230AE
S1130D6069F4611106C0E0EBF0E08081806A808361
S1130D7005C0E0EBF0E08081806F80834330B9F000
S1130D8028F4413041F0423061F02DC04530A9F0E3
S1130D904730F1F028C0E0EBF0E08081816080838F
S1130DA02CC0E0EBF0E080818260808326C0E0EB21
S1130DB0F0E080818360808320C0E0EBF0E08081FC
S1130DC081608083E1EBF0E080818860808315C0DE
S1130DD0E1EBF0E0808188608083E0EBF0E08081EB
S1130DE0836080830AC0E1EBF0E08081877F8083A9
S1130DF0E0EBF0E080818C7F80832034310549F181
S1130E0050F428303105C9F020323105E1F02130A9
S1130E103105B9F50CC0211581E0380731F12115F0
S1130E2084E0380741F12038310559F518C0E1EB69
S1130E30F0E08081816080830895E1EBF0E08081BF
S1130E40826080830895E1EBF0E080818360808399
S1130E500895E1EBF0E08081846080830895E1EB04
S1130E60F0E08081856080830895E1EBF0E080818B
S1130E70866080830895E1EBF0E080818760808361
S1130E800895E1EBF0E08081887F80830895F999EB
S1130E90FECF92BD81BD8FB381608FBB80B50895B5
S1130EA0F999FECF92BD81BD60BD8FB384608FBBC5
S1130EB08FB382608FBB08959091C00095FFFCCFE3
S1130EC08093C60008950F931F93CF938C01C0E0C5
S1130ED003C00E945C07CF5FF801EC0FF11D808115
S1130EE08111F7CFCF911F910F9108958AB182603C
S1130EF08AB98AB18E7F8AB91092C000E1ECF0E021
S1130F001082808188698083E2ECF0E01082808125
S1130F108660808387E690E09093C5008093C40048
S1130F200895EF92FF920F931F93CF93DF93CDB762
S1130F30DEB76E970FB6F894DEBF0FBECDBF1F921B
S1130F408F9383E091E09F938F937E0185E1E80E78
S1130F50F11CFF92EF920E9494088EE0E6E0F1E02B
S1130F608E010F5F1F4FD80101900D928A95E1F712
S1130F70B701C8010E948908F80101900020E9F72F
S1130F8031978AE090E091838083C8010E946307CF
S1130F900F900F900F900F900F900F906E960FB6CA
S1130FA0F894DEBF0FBECDBFDF91CF911F910F919B
S1130FB0FF90EF900895CF93DC0140E050E0C0E053
S1130FC020E030E021C09A33E1F0CC23D9F0903214
S1130FD0C9F09A30B9F080ED890F8A30D8F4B9019C
S1130FE0660F771F220F331F220F331F220F331F69
S1130FF0620F731F292F30E020533109260F371F4A
S113100001C0C1E04F5F5F4FFD01E40FF51F908108
S11310109111D9CF822FCF91089526E1829FC001EB
S113102011248E509C4F08950F931F93482F50E026
S113103060E070E0DB01CA01880F991FAA1FBB1F83
S1131040880F991FAA1FBB1F8C019D01040F151F38
S1131050261F371FC901B8012CE330E040E050E0FF
S11310600E9461088CE0820F1F910F9108952DE07A
S1131070829FC00111248E509C4F08950F931F939B
S1131080482F50E060E070E0DB01CA01880F991F2F
S1131090AA1FBB1F880F991FAA1FBB1F8C019D018C
S11310A0040F151F261F371FC901B80126E330E0BE
S11310B040E050E00E94610886E0820F1F910F918A
S11310C00895A1E21A2EAA1BBB1BFD010DC0AA1F85
S11310D0BB1FEE1FFF1FA217B307E407F50720F09D
S11310E0A21BB30BE40BF50B661F771F881F991F18
S11310F01A9469F760957095809590959B01AC0161
S1131100BD01CF010895EE0FFF1F0590F491E02D6E
S11311100994FB01DC010D900020E9F7119701907F
S11311200D920020E1F70895AEE0B0E0EAE9F8E0BE
S11311300C94550B0D891E8986E08C831A830983D0
S11311408FEF9FE79E838D83AE01475E5F4F6F896C
S1131150788DCE0101960E94B608EF81F885E00FE4
S1131160F11F10822E96E4E00C94710BABE0B0E01A
S1131170ECEBF8E00C94470B6C017B018A01FC0159
S113118017821682838181FFCCC1CE0101963C0176
S1131190F6019381F70193FD859193FF81917F017E
S11311A0882309F4BAC1853239F493FD859193FFFC
S11311B081917F01853229F4B60190E00E94AD0A45
S11311C0E7CF912C212C312CFFE1F315D8F08B3291
S11311D079F038F4803279F08332A1F4232D206140
S11311E01DC08D3261F0803369F4232D216016C057
S11311F0832D8260382EE32DE4603E2E2AC0F32D29
S1131200F8601DC037FC2DC020ED280F2A3040F0B7
S11312108E32B9F436FC81C1232D2064322E19C0DC
S113122036FE06C08AE0989E200D1124922E11C02D
S1131230EAE02E9E200D1124222EF32DF0623F2E83
S113124008C08C3621F4832D8068382E02C088367D
S113125041F4F70193FD859193FF81917F01811101
S1131260B3CF982F9F7D9554933028F40C5F1F4F74
S11312709FE399830DC0833631F0833771F0833552
S113128009F059C021C0F801808189830E5F1F4F86
S113129088248394912C530113C02801F2E04F0E4B
S11312A0511CF801A080B18036FE03C0692D70E0A6
S11312B002C06FEF7FEFC5010E94A20A4C018201B8
S11312C0F32DFF773F2E16C0280122E0420E511C59
S11312D0F801A080B18036FE03C0692D70E002C021
S11312E06FEF7FEFC5010E94970A4C01F32DF06860
S11312F03F2E820133FC1BC0822D90E08816990694
S1131300B0F4B60180E290E00E94AD0A2A94F4CFD2
S1131310F50137FC859137FE81915F01B60190E0BC
S11313200E94AD0A21102A9421E0821A91088114A6
S1131330910471F7E8C0843611F0893641F5F8015B
S113134037FE07C060817181828193810C5F1F4FDA
S113135008C060817181072E000C880B990B0E5F09
S11313601F4FF32DFF763F2E97FF09C09095809570
S1131370709561957F4F8F4F9F4FF0683F2E2AE005
S113138030E0A3010E94E90A882E861845C08537FB
S113139031F4232D2F7EB22E2AE030E025C0932D88
S11313A0997FB92E8F36C1F018F4883579F0B5C01D
S11313B0803719F0883721F0B0C0E92FE061BE2EE4
S11313C0B4FE0DC0FB2DF460BF2E09C034FE0AC06C
S11313D0292F2660B22E06C028E030E005C020E1A7
S11313E030E002C020E132E0F801B7FE07C06081BE
S11313F07181828193810C5F1F4F06C0608171816E
S113140080E090E00E5F1F4FA3010E94E90A882E3E
S11314108618FB2DFF773F2E36FE0DC0232D2E7F21
S1131420A22E891458F434FE0BC032FC09C0832D5B
S11314308E7EA82E05C0B82CA32C03C0B82C01C0E6
S1131440B92CA4FE0FC0FE01E80DF11D808180338C
S113145021F49A2D997EA92E09C0A2FE06C0B39448
S1131460B39404C08A2D867809F0B394A3FC11C008
S1131470A0FE06C0B21488F4280C922C9B180EC04F
S1131480B21460F4B60180E290E00E94AD0AB39415
S1131490F7CFB21418F42B1802C0982C212CA4FEF8
S11314A010C0B60180E390E00E94AD0AA2FE17C00E
S11314B0A1FC03C088E790E002C088E590E0B60193
S11314C00CC08A2D867859F0A1FE02C08BE201C0BF
S11314D080E2A7FC8DE2B60190E00E94AD0A891477
S11314E038F4B60180E390E00E94AD0A9A94F7CFF5
S11314F08A94F301E80DF11D8081B60190E00E9409
S1131500AD0A8110F5CF222009F442CEB60180E263
S113151090E00E94AD0A2A94F6CFF6018681978165
S113152002C08FEF9FEF2B96E2E10C94630BFC015A
S11315300590615070400110D8F7809590958E0FFA
S11315409F1F0895FC016150704001900110D8F76D
S1131550809590958E0F9F1F08950F931F93CF939F
S1131560DF93FB01238121FD03C08FEF9FEF2CC08C
S113157022FF16C0468157812481358142175307C3
S113158044F4A081B1819D012F5F3F4F31832083BB
S11315908C93268137812F5F3F4F3783268314C076
S11315A08B01EC01FB010084F185E02D0995892B69
S11315B0E1F6D80116968D919C911797019617968E
S11315C09C938E931697CE01DF91CF911F910F912B
S11315D00895FA01AA27283051F1203181F1E894C5
S11315E06F936E7F6E5F7F4F8F4F9F4FAF4FB1E012
S11315F03ED0B4E03CD0670F781F891F9A1FA11D0D
S1131600680F791F8A1F911DA11D6A0F711D811D0D
S1131610911DA11D20D009F468943F912AE0269FD2
S113162011243019305D3193DEF6CF010895462F31
S11316304770405D4193B3E00FD0C9F7F6CF462F12
S11316404F70405D4A3318F0495D31FD405241937B
S113165002D0A9F7EACFB4E0A69597958795779538
S11316606795BA95C9F700976105710508959B01BF
S1131670AC010A2E06945795479537952795BA9548
S1131680C9F7620F731F841F951FA01D08952F9221
S11316903F924F925F926F927F928F929F92AF92FE
S11316A0BF92CF92DF92EF92FF920F931F93CF934B
S11316B0DF93CDB7DEB7CA1BDB0B0FB6F894DEBFE2
S11316C00FBECDBF09942A88398848885F846E8408
S11316D07D848C849B84AA84B984C884DF80EE8052
S11316E0FD800C811B81AA81B981CE0FD11D0FB65B
S11316F0F894DEBF0FBECDBFED010895F894FFCF7F
S11317000101042564004D6F646F20616374756189
S10717106C3A20000B
S9030000FC
